:2000000000400020A55E010001C9011001C9011001C9011001C9011001C9011001C901105A
:1C00200001C9011001C9011001C9011001C9011001C9011001C901103FC9011089
:20003C0080B540F21C420FF2A00121480FF058FF01212048017202210022417602700322EE
:20005C001D490A700422CA700521417706201B491B4A08700721117001BD2DE9F0410FF250
:20007C00844218493820136854689568D6681769D2F814C0D2F818E0D2F81C800B604C6016
:20009C008D60CE600F61C1F814C0C1F818E0C1F81C8020322031401EE5D110685368946840
:2000BC00D26808604B608C60CA60BDE8F08100004804002151030021C1030021740300214C
:2000DC009803002100C0002115050021CB06002123070021750400218104002199040021F1
:2000FC00090800211D08002170B51D46004C204787B200007046000A054AC42804D01047D2
:20011C00034AE4320120049002490020087010479D670000DC01002103490888034A71468F
:20013C00904200D0891C08478A0100210414000010B5014800470000D509000070B5C00130
:20015C00004C2047D5460000F8B5B74CB748254660352F7B00262E7380472F73697B014304
:20017C0017D1002F15D0617E00290ED0214620310A7C5308DB0700D12676236A497B002B1D
:20019C0001D104231943114202D0217DC90600D4E675F8BD0188A64A8918032906D8A54867
:2001BC007C210185A449416201207047A34908479D4830B4014640310A7C022A16D10268D9
:2001DC00D2794A7502689368024680329360487D02280BD0002809D0C41E062C09D8954909
:2001FC00800040184038806B18189060944830BC00470320C002C8800220087230BC0320A1
:20021C00704770B5884804464034A57D012D12D0017D4906CA0F80210A54217C00290AD1E0
:20023C00603040788008C00702D0E07C000702D50120A07500E00020A07382488047A5750B
:20025C0070BD70B5784C8048254650358047022809D14034E1887D4A914204D1E97C8906A9
:20027C0001D4911DE18070BD70B56F490A8908465030D2B2282A07D10A68D2684261937A09
:20029C00D27A12029A1802830378714A002B10D08379012B0DD1037C5B09DB0709D0097D40
:2002BC006C4DC1746C7F20202043687790476C7770BDFF21C174904770BD10B566485A4C6E
:2002DC00804702280ED121464031CA885F4B9A4208D1CA7C5209D20704D0227D920601D44F
:2002FC009A1DCA8010BD70B54F485C494030C07C4009C00707D0574D59482C8B2043288316
:20031C0088472C8370BD884770BD70B5464C5549264640363579A8004018C06880470A2D0F
:20033C00214610D054310A789309DB0704D0B2730A7803231A430A702189CAB22B2A01D30E
:20035C002839218170BD5331EDE73749403108711E2822D008DC082813D00A2813D00B2818
:20037C0013D0182808D112E0252812D02A2812D03C2808D03D2812D03A4980004018C0680A
:20039C00704739487047394870473948704739487047394870473948704739487047394881
:2003BC007047F8B50746204C4E20005D8509EE07FB25002E17D0267D3407240F052C03D06C
:2003DC000124204202D012E00224FAE7C00905D0700603D54868800F012808D05B085B00C5
:2003FC005208520003E0002801D02B402A40062B03D01020022B10D010E002232A40384646
:20041C00FFF772FE002807DAC200B91A2039497E1422114200D10020F8BD02430343384664
:20043C00FFF762FEF8BD00004401002167A70000D5E7FFFFEC000021579600006396000074
:20045C0075D50000F3BC000037CB000004140000EBC80000A8000021F5B4000053AD000048
:20047C002020000080DF0000C90400218B060021670600213B060021E9050021C305002139
:20049C00830500213105002110B5034CFFF750FE20680028FAD110BD0011044010B50D4831
:2004BC00846B406B4101E004C00E014372B60A4B186882B2581510431860084880681A6033
:2004DC0062B6074A5379902253432207120FFFF735FE10BD80500440000004400040044067
:2004FC008002002168610000F825F965F9754500450045002600260057A3520052004C0086
:20051C00401F401F401F3F0000000000304000400140034007400F404F40CF40CF41CF43D9
:20053C00CF47CF4FCF3FCF2FCF1FCF0F000000000000000000000F00080000003F0000003D
:20055C0040003F000000040068000E00DC00060043001A0005000000000002000000000040
:20057C00000000000400C00000000400C000000007000000000000000000000000000000D0
:20059C0000000000304000400140034007400F404F40CF40CF7FCF6FCF5FCF4FCF3FCF2FF3
:2005BC00CF1FCF0F000000000000000050C00091007070C00091007082312100319110B1BA
:2005DC000070018101B100A18231329110B101911110418141227740F106007051C00191EA
:2005FC0030181039833108D01831416F3100319110B18314141683680070251050C0009123
:20061C00F4C340C12014036F311041045082F0229840512622C082312100319110B16339D2
:20063C003110410482C082312100319110B163393110A2C082312100319110B15010153143
:20065C00051405920070676452C0311031066131C1026A6412C13110213971065131E1029C
:20067C006A64007051C0019101CCE2C06A64676411C1C2C06A6450B054B0007140804022BC
:20069C00D6440022C94060B08180111EC944007054A064B0F0800022C9404012B09032B025
:2006BC0070C1DF6811C122C16A6470C1E46851C00191E2C0823160820200329110B130C254
:2006DC00EE68538253395339B16460C3F4688012B09032B00070676401C122C16A6401C103
:2006FC00C2C06A645382B164C012B09032B00070676472C281C06A6422C111C16A6402C0ED
:20071C0011C16A6462C031C36A6462C311C16A6402C311C16A6453825339B164E2C36F6421
:20073C0011221C4142C281C86A6452C211C16A6472C2E1CE6A6402C281C86A6402C201C825
:20075C006A64B0C030690070676442C201C86A6452C211C06A6472C2E1C06A6402C001C1F6
:20077C006A6462C001C36A6422C101C16A6462C301C16A6402C301C16A645382B164007004
:20079C008180111E5C4150B054B00071408040225D4154A064B0F180012251450070002277
:2007BC00514160B04E610000000000000000000000000000067305720B720E7250B000716E
:2007DC00818060B050A09280F0EFF19202936A6741228C458080F1C11004301601110114BB
:2007FC00016CB561B661B761B861B961BA61BB61BD61BF61C161C36126632D63F0C002046E
:20081C003231412A1214321601112114016CDA61C561E061C761CB61B561B561B561F4613F
:20083C00C561FA61C761CB61B561B561B561F461C561FA61C761CB61B561B561B561E761D1
:20085C00C561ED61C761CB61B561B561B561CF61CF61CF61CF61CF61CF61C064CF61F964A1
:20087C00CF610665CF613265CF617467CF611166CF61C0644E65F964CF610665116632653B
:20089C00CF618280E0DFF2926A67B0B0D661B1B00673057230B06C61D0CF6A6784C203C0E8
:2008BC00C0C37C64207851788278E3781579B6780062C0CF6A6784C203C0C0C37C64307871
:2008DC0061789278F3781579C6780062B0CF6A6784C203C0C0C37C6440787178A27803798D
:2008FC001579D67810922192329243925492659256911FC0FF914039F006011010311014FA
:20091C0000927067CF61E3B054A0F08050221A4640800022BE461262E3A000C860915981E9
:20093C0050B0918041228E46A0CF6A6712828231823942398B641282F2062F101F312F1449
:20095C001682D622334640C1346200C520140D6F6D39DE10F4C34E0482C082312E006D3900
:20097C00A2C082312D001A828A39FA062082803180390BC00B18BC10AC18038239149B14AF
:20099C001082F006011010311014518110140C14C622C94631D0C1266462021011C001306E
:2009BC0010C00118021882312100C126919103B013B063B053B041800122BE46B481C4913D
:2009DC00D581B51C774E95186591F080102269428C623D9110B13E9110B1E08000228146C9
:2009FC00E6228142E0B0951865910F925981F914F0805022114210228C464D6390CF6A673C
:200A1C0063B052A03082F2C02004021011C0013010C00118021882312100C1269191919117
:200A3C0013B003B063B053B064B054B0007141800122BE4663B064B0F08050221142B1810F
:200A5C00C191D1819118619131B0A4622967E0A059810582591480C0007163B0BA6A6962C3
:200A7C00E3A0018262818231823D80EFF19202936A6703A000703782473987393082803930
:200A9C00F006021011C0013010C00118021882312100C126819102B012B030824039F006CB
:200ABC00021011C0013010C00118021882312100C126919103B013B063B053B0007153A036
:200ADC0062B052B041800122BE46A481C491D581B51CFE4E95186591F0801022F0428C62AC
:200AFC00B481C491D4814518751C084FF0801022F0428C623D9110B13E9110B1E080002253
:200B1C001247E6221243E0B065910F925981F914F0805022114210228C4630632967E0A019
:200B3C00598105825914F0C0007162B0226BF062A2808B64CF6112824239F2068B6050B086
:200B5C000071CF6170CF6A67408241800122BE46A481C491D58195186591F18011228C4635
:200B7C00336B41800122BE46A481C491D581C51C1C4B95186591F08010223F438C6260CFD7
:200B9C006A67408241800122BE46B481C491D58195186591F18011228C46506B4180012226
:200BBC00BE46B481C491D581C51CB44A95186591F08010225C438C62E092D08200226B47EC
:200BDC00C0B20070A080F022874330B002C1623101C0A080001E8043F022814380F8603144
:200BFC00603981632010101A136F236E11161216826B00702DE9F047DFF8A0916849694E86
:200C1C0089F80000002008600921674801700D2141804FF48A71818064480660B77E644844
:200C3C000770FF2FF17E417008BFFF29327F8270737FC370B57F0571F67F467114D1FF2A38
:200C5C0008BFFF2B10D1FF2D08BFFF2E0CD159490A7802704A7842708A788270CA78C27037
:200C7C000A7902714979417153490278534D544EDFF850810A7042784A7082788A70C278D2
:200C9C00CA7002790A7140794F4A4871FF2028706870A870E8702871687100204B49088050
:200CBC00776B4B497878087039781170B87849490870796908794849421E0A70F878474900
:200CDC0088F80000B869086008B918F05DF8F869434C206008B918F057F82068DFF804A145
:200CFC0001688847216851F8042F504690473E483E49CAF820003E48CAF82400386A0860C9
:200D1C0008B918F041F8786A3A4C206008B918F03BF8B86A3849086008B918F035F80CF0D4
:200D3C00D9F807280CD10FF045FD99F800004FF480410DF011FBBDE8F047002018F024B8FB
:200D5C002E480168884721680A6807469047226852F8041F00208847F16898F800000A8849
:200D7C00274B284902431A8038460A6890470C21254800F04DF8284600F04EF800F050F823
:200D9C002248002101604FF6FF7181804FF4005199F80000BDE8F0470DF0DEBA6E4F002022
:200DBC00044F0020B63F0050604E0020084F00202C4E0020E81200503C4E0020344E0020EA
:200DDC0014B301006C4F00207B4F00200C4F00206D4F00206B4F0020724F0020F04E0020FA
:200DFC00F44E00207C4B0020BD960100F84E0020DD960100FC4E0020301E0020000C00205C
:200E1C00544F0020040C0020F84D0020001E0020DFF800F0E5710110DFF800F01D6E01108F
:200E3C00DFF800F04D7101107CB56D4D0446A8680E4628B94FF00040002112F0E9FFA860F4
:200E5C0000213CA30A4617F0A4F820463DA3801E08D0801E61D0401E4CD0401E37D0401EBB
:200E7C0022D00EE0A868012E05D000210A4617F090F837A357E000210A4617F08AF839A37B
:200E9C0051E0A86800210A4617F083F8A868022100223AA317F07DF801208DF803009DF816
:200EBC0003000028FBD17CBDA86800210A4617F070F8A8680221002236A317F06AF801203E
:200EDC008DF802009DF802000028FBD17CBDA86800210A4617F05DF8A8680221002232A3A4
:200EFC0017F057F801208DF801009DF801000028FBD17CBDA86800210A4617F04AF8A8683C
:200F1C00022100222DA317F044F801208DF800009DF800000028FBD17CBDA86800210A4674
:200F3C0017F037F829A3A8680221002217F031F87CBDC0463E3E3E535441434B2041535398
:200F5C00455254002A2A2A4552524F522A2A2A003E3E20494E5445524E414C204552524FB3
:200F7C00522100C03E3E20494E5445524E414C204657204552524F522100C0463E3E2044BB
:200F9C00454641554C54205350494E4C4F434B2100C046C03E3E2057524F4E4720415049E7
:200FBC002043414C4C2100C03E3E204943414C4C2054494D454F55542100C0463E3E2049A4
:200FDC0043414C4C2041424F525421003E3E204F5554204F46204D454D4F52592100C046B7
:040FFC0008020020C7
:20100000B41200001810000015AB0110FDB301106DC00110FDAE011099B5011059BA0110D3
:0810200039BA01102D00000097
:20102800B01200003C100000B1C00110A9BF011067C0011069B80110B9B9011099B901104F
:041048003000000074
:20104C00B012000060100000BDC00110CDB30110D9BD01106DB301108DB80110D9B9011062
:04106C00310000004F
:20107000000000009412002004000000000000000000000020000000E8C901103000000084
:20109000281000009C1200200400000000000000000000000C000000D8CA0110180000005F
:2010B0004C100000A412002004000000000000000000000024000000F0CA011018000000E3
:2010D00000000000AC1200200400000000000000000000001000000018CA01102C000000EF
:2010F00000100000BC120020040000000000000000000000200000006CCA01102400000053
:20111000FFFFFFFFC41200200400000000000000000000002800000090CA01102400000012
:20113000FFFFFFFFCC1200200400000000000000000000001400000008CB01101800000091
:20115000FFFFFFFFD412002004000000000000000000000058000000B4C90110340000005F
:20117000FFFFFFFFDC1200200400000000000000000000001000000020CB0110180000002D
:20119000FFFFFFFFE41200200400000000000000000000001C000000B4CA0110240000005A
:2011B000FFFFFFFFEC1200200400000000000000000000003800000044CA01102800000082
:2011D000FFFFFFFFF41200200400000000000000000000005400000078C901103C000000F7
:0811F00001000000E0B2010063
:0411F80001000000F2
:0411FC0000000E00E1
:0412000000000F00DB
:0412040032000000B4
:0412080001000000E1
:04120C0000110020AD
:0412100000020000D8
:0412140000000000D6
:0412180001C90110F7
:04121C0000000000CE
:0412200000000000CA
:0412240008000000BE
:0412280000002200A0
:04122C00F80E002098
:0412300000000000BA
:0412340000000000B6
:0412380008000000AA
:04123C008C100020F2
:0412400000000000AA
:0412440000000000A6
:04124800080000009A
:04124C00000000009E
:04125000000000009A
:041254000000000096
:041258000000000092
:04125C00010000008D
:04126000940F0020C7
:041264000600000080
:041268000100000081
:04126C00A00D0020B1
:04127000000000007A
:041274000000000076
:041278000002000070
:04127C00000000006E
:02128000290043
:02128200010069
:02128400250043
:02128600300036
:02128800310033
:02128A002D0035
:02128C0001005F
:01128E00015E
:081290000300000058B2010048
:0812980000000000000000004E
:0412A0000000010049
:0412A4000000030043
:0412A80013C401105A
:0412AC006F9301003B
:0412B000B812000070
:0412B400B81200006C
:0412B8000000000032
:0412BC004C120020B0
:0412C0004395010051
:0412C4002000000006
:0412C800BCB10100B4
:0412CC0038B0010035
:0412D00029C101101F
:0412D400D75D0100E1
:0412D800AB6B0100FB
:0412DC00A1C7011095
:0412E000A3C701108F
:0412E4000000000006
:0412E800E3B101006D
:0412EC0008AE010047
:0412F00020AE01002B
:0412F400F0AD010058
:0212F8000200F2
:0212FA000900E9
:0212FC000100EF
:0212FE000000EE
:0113000001EB
:04130400C994010087
:04130800B5700100BB
:04130C00B1860100A5
:04131000357501002E
:04131400ED70010077
:04131800015D010072
:04131C00A10E01001D
:04132000E197010050
:04132400D9420100A9
:0413280015C70110D4
:04132C0025C70110C0
:201330002DE9F04FADF13C0D18F082FF14F046F8071C00F01A8517F0EBFDBC4A002132F8A4
:201350000C6F002E40F00D854FF6F87515805760B74C2170002696607968E16017F06CFFD0
:2013700004F1600004F16C010EF048FBA06108B918F05AFF16F07CFE04F15407314638467D
:2013900018F04EFFAB48276114220123AA49009004F1D40014F05EF804F188003246152340
:2013B000A6490090102009F07BF8D74910203246022309F075F8B04601208DF82100D34FD0
:2013D0008DF8220006464FF480628DF823800DF1210039468DF8246033460090102009F0E4
:2013F0005FF80DF1220040F20242009033463946102009F055F80DF123000090394640F290
:2014100003423346102009F04BF809A8394640F2064233460090102009F042F8C84910203B
:201430004FF0FF3209F03CF8C64910204FF0FF3209F036F8DFF81093C44F10201323C44A28
:2014500000904946019709F02BF8042018F034FBD04F0146B96061B1E81D15F05BFED14940
:20147000102007F11402009011230191494609F017F8022330468DF8263004228DF82500EB
:2014900003268DF82820CC498DF8276006AB40460A6809791A600DF12502197101210CF0B3
:2014B000A1FE01200DF1260201460CF09BFE022001210DF127020CF095FE01210AAA304614
:2014D0000CF090FE0420052106AA0CF08BFE04F11C0004F14C02C6497860102008F0E0FFB1
:2014F000207816F063FBC3490246102008F0D8FF207816F05BFBC0490246102008F0D0FF51
:20151000CD491020FB2240F6480308F0C9FFCB49102008F0C5FFCA4F07F1180007F10C01E9
:201530000EF06CFAC749B86018F077F9DFF81893B8684FF4E0214A46521E15F04BFBB86846
:201550004FF4E0214A4615F045FBDFF80093B8684FF0C0514A46521E15F03CFBB8684FF0ED
:20157000C0514A4615F036FBB949CDF8008007F12400C822434613F06DFFB6487860681DE4
:2015900014F09AF9207816F011FBCDF8008003460422B149CDF80480102008F081FF04F166
:2015B000A0004146182210F02DFC04F1A0000C90EF1D07800DF12A0018F022FA8DF82A6072
:2015D0004FF000400DF12A0112F028FC414697A3A0600A4616F0E3FC04F144008022082331
:2015F0000B909E490090102008F05AFF9C4FC0B230BB94F84A000B9D401C90FBF6F1802212
:2016100008237143401A84F84A0039460D911020009508F045FFC7B2A06817B30097012199
:201630004246C7A316F0BBFC1AE0C046400C00200802002061120020C572010069410100DF
:201650000090A06801214246C2A316F0A8FC0B98394680220D9108230090102008F020FFC5
:20167000A06894F84A100B9A009111880191518802919188BCA342460391012116F08FFC58
:2016900007F070F8BF4FE06800214FF040424FF0FF3318F0C1FD5FEA000BF4D000200490A0
:2016B00008A904AA05A812F02BFB002840F0C0819DF814000DF1160115F060FD002840F0D5
:2016D000B481BDF81600ADF8140017F0BBFABDF81400102840F0A78120789DF82010884205
:2016F00040F0A181049908884FF6FF72824200F09A810D46287891382CD01F3808D0203897
:2017100000F08E818FE1C0462D730100758500002B79A0683A787E2B04D07F2B0AD10989B7
:20173000B7A301E0297ABAA30091521CD1B2002216F035FC297905F1080018F069FD72E122
:2017500021860100AD8A01007D7E010034B20100A406002068780E3850D0401E2ED0401EEC
:2017700000F048812E3840F05E81A8780C2840F05A81EE78A0683978B6B9EA79012A0BD0D5
:20179000022A08BFCAA208D0032A0CBFC9A2CBA203E0C046D4070020CEA20092891CCEA336
:2017B00004E0C04640B20100491CD0A3C9B2002216F0F5FB0C2016E0C4AE0100A88842F2D8
:2017D0003201814240F02F81AA78A06839781A2A1ABF0092CAA3D2A3491C0022C9B216F0AF
:2017F000DEFB42F23200294610F058F81BE1C0461D8C01005188011031810110A968AE883B
:20181000087841F20542B61A2CD0A6F62B46002E40F00981002840F00681C87800900879CD
:2018300001903978D5A3C91DDEE0C046424C45205445535400C046C021B10010150601003D
:20185000EC0D0020AD6B01000E0005800E0000109D930100A3870100C5900000517E010014
:2018700085BB0000A968491C91F902A0002840F0DA804A78087800EB022017F0D7FD061C78
:2018900001D017F061FDBAF17F0F00F0A0800C99F00000EB06100D186A7C531C6B74821830
:2018B000521882F80CA06A7C4FF0050C634609180C31002092FBF3F303FB0CF3D21A634626
:2018D0006A7411F9012B5B1E024410B2F9D1614690FBF1F040B2A874EB7C002B77D110F19D
:2018F0001E0F4FF0000904DB2B7D022B18BF002B4AD195F9120010F11E0F07DA10F1280FAB
:2019100004DB2B7D012B18BF002B14D110F1320F04DB10F1280F5ADA2B7D33B910F1320FBA
:2019300055DA04214FF002092FE004214FF001094FF006082BE04FF00108414627E0C04648
:20195000534E56205752495445204641494C3A20256400C0534E56205245414420464149D3
:201970004C3A20256400C0467265626F6F74282564293A205B25642C2025642C2025645D78
:2019900000C046C0AC11002002214FF00208687D804502D1AB7D022B01DB804517D028881E
:2019B0000A464B4614F0E0FE0120E874687D80451CBF0020A875B9F1000F06D0B9F1010FCC
:2019D00014BF4FF002084FF0060885F81580F0000C99CDF800A000EB0610401890F912008E
:2019F00001903978B4A3491DA068C9B2002216F0D6FA18E008200021FFF71CFA13E0C04617
:201A10004D54552053697A653A20256400C046C046432056696F6C617465643A2025640098
:201A3000084602F0E1FD049810B1049817F0EEFF5FEADB70FFF427AE206918F0E5FB002896
:201A50007FF421AE2069054618F0DAFB854208BF002502D0856815F077FB002DECD0297810
:201A7000A0696269491E082900F27381DFE811F03301E000BA0090007000560153014D0175
:201A900009006B68588817F0D1FC061C01D017F05BFC0C99F00000EB06104018C07D012801
:201AB00040F057815A88B449102008F0F9FC50E1324D00C0434F44454400C046556E65789D
:201AD000706563746564205048592056616C756500C046C0314D00C05048592055706461B4
:201AF00074656420746F20257300C046504859204368616E6765206661696C75726500C0B9
:201B10005048592055706461746520537461747573204576656E743A203078257800C046D6
:201B3000504859204368616E6765206661696C7572652C207065657220646F6573206E6F76
:201B50007420737570706F7274207468697300C06E68737A4BB1894800903978A068002231
:201B700087A3C91CC9B216F01AFA844800908149F2880023102008F093FCEAE0525850680B
:201B90003A2025642C20545850683A20256400C06B681879A26839781B780BB35B1E16D030
:201BB0005B1E0ED05B1E40F0D48000280EBF78A300907CA3C91C1046C9B2002216F0EFF93C
:201BD000C7E0002808BF7DA3F4D081A304E0002808BF85A3EED088A30090C91C164692E030
:201BF0008AA3E7E76E68A26838783168491E0CD0491E08D00E3912D171680B780093498845
:201C100086A3019105E08EA300E092A3716809780091001DC1B21046002216F0C0F9306884
:201C3000B0F1004F00F09580706815F08DFA90E068680078010924D24009C0F08A800E2052
:201C500017F0B8FB002840F084807868797842680B46B3EBD26F12D01A46FF2A79D000EB14
:201C7000C202D6682EB900EBC100006915F0E2F96FE000EBC10002691846904769E08068AA
:201C9000F4E70D2017F096FB002862D1796878784968B0EBD16F07D0FF2809D0401CC0B237
:201CB00014F0E8FEFF2802D1002014F0E3FE78700AF002FA4DE0C046525353493A256420F6
:201CD00064426D2C2041564720525353493A25642064426D00C06868A668037843B19B1E9A
:201CF00037D102200DF1290114F05CFD5EA305E000200DF1290114F055FD5EA39DF82900E2
:201D100000903978491C324655E76868B0F801000FF064FA21E012F03BFC1AE0521C62611E
:201D3000062102F0010214F071FF94F84A20A08A0B9921F8120000910D99082310208022E0
:201D500008F0AEFB6269A069062102F0010214F05DFF686808B115F0F7F9284615F0F4F9A4
:201D70006AE6491C0629FFF4EAAA17F0C5FE0FB0BDE8F08FD175010025AB001040E20100F1
:201D900050617373636F64653A20256400C046C0426F6E6420736176652073756363657360
:201DB0007300C046426F6E642073617665206661696C65643A20256400C046C0456E637292
:201DD000797074696F6E207375636365737300C0456E6372797074696F6E206661696C652B
:201DF000643A20256400C04650616972696E6720737563636573730050616972696E6720B9
:201E10006661696C3A20256400C046C050616972696E672073746172746564004164762051
:201E30005365742025642064697361626C656420616674657220636F6E6E20256400C046B6
:201E5000416476205365742025642044697361626C656400416476205365742025642045B5
:201E70006E61626C656400C04368617220333A20256400C04368617220313A202564000006
:201E90008C462DE9F04F0146ADF13C0D60468B68CD680C6900924A690B930E9243780278E2
:201EB0008778C678DFF8D8C242EA032A4AEA074A0B9B0E9F0D9487EA040244790C954AEA89
:201ED000066A154087EA05025244D2180C9BA2EB0C021D4603EB72630279467B42EA042C35
:201EF0008479C2794CEA044C0D9C477C4CEA026C2246CDF828C06A40457ADFF8A0E290F8A5
:201F10002180C1F85CC01A4062406244047ADDF838C06244DFF86CC2A2EB0C0244EA052CA9
:201F3000857AC47A4CEA054C0C9D03EB32524CEA046C90F83090CDF824C02C4690F834B03D
:201F5000C1F860C05C4014406C406444057BDDF834C06444DFF830C2644445EA062C867B90
:201F70004CEA064CC67B02EBF43483EA020525404CEA066CCDF820C05D40C1F864C065442A
:201F9000067CDDF830C06544DFF800C2A5EB0C0546EA072C877C4CEA074CC77C04EBB5250C
:201FB00082EA04062E404CEA076C5640477DCDF81CC09B19067DC1F868C06344DFF8D0C162
:201FD000A3EB0C0346EA072C877D4CEA074CC77D05EB736384EA05061E404CEA076C664034
:201FF000477ECDF818C09219067EC1F86CC06244DFF8A0C1624446EA072C877E4CEA074CE6
:20201000C77E03EB325285EA030616404CEA076C6E40477FCDF814C0A419067FC1F870C04A
:202030006444DFF874C1A4EB0C0446EA072C877F4CEA074CC77F02EBF4344CEA076C83EADA
:20205000020704EA070690F820705E40AD1990F822606544A5EB0E0547EA082E90F8237018
:2020700090F8258004EBB5254EEA064E4EEA076E82EA040705EA0706494FCDF810E05640CB
:202090009B1990F82460C1F878E07344DB1946EA082E90F8267090F8276090F8298005EB00
:2020B00073634EEA074E4EEA066E84EA050703EA07063C4FCDF80CE06640921990F82860F0
:2020D000C1F87CE07244D21B46EA082E90F82A7090F82B6090F82D8003EB32524EEA074E69
:2020F0004EEA066E85EA0307CDF808E002EA07066E40A41990F82C60C1F880E04AF24F479B
:202110007444E41B46EA082E90F82E7090F82F6002EBF4344EEA074E4EEA066E83EA020791
:2021300004EA070690F838801F4FCDF804E05E40AD1990F83160C1F884E0754449EA062988
:20215000ED1B90F8336090F83270DFF860E004EBB52549EA074949EA066982EA040705EAB7
:20217000070690F8357056404BEA072B9B1990F8377090F836604B444BEA064B734417E054
:20219000885B9528AA483817DB7020241231423E51F0830A2AC68747EDB9CF57FF6AB90280
:2021B000D89880695108BB744228A3762211906B4BEA076B05EB736384EA050703EA07069C
:2021D00090F83970DFF8B8E36640921948EA072890F83A6090F83B7048EA064848EA076824
:2021F000E84F5A44A2EB0E0285EA030603EB325216406E40A41990F83D604444E41B90F87E
:202210003C7047EA062E90F83E704EEA074E90F83F7002EBF4344EEA076E83EA020704EA7D
:202230000706D94F5E40AD197544ED190A9F04EBB52584EA0506164066409B19DB19D34F85
:20225000DB1B059F05EBF36385EA030626406E409219D219CE4FD21B019F03EBF25283EA23
:2022700002062E405E40A419E419CA4FE419CA4F02EBB44482EA04061E405640AD195544A3
:20229000ED1B069F04EB353584EA0506164066409B19DB19F24FDB1B029F05EBF36385EA7E
:2022B000030626406E409219D219EE4FD219EE4F03EBF25283EA02062E405E40A4197444CE
:2022D000E41B079F02EBB44482EA04061E405640AD19ED19E54FED1B039F04EB353584EA89
:2022F0000506164066409B19DB19E14FDB19E14F05EBF36385EA030626406E4092194244C8
:20231000D21B089F03EBF25283EA02062E405E40A419E419D84FE41B049F02EBB44482EA92
:2023300004061E405640AD19ED19D44FED19D44F04EB353584EA0506164066409B195B4456
:20235000DB1B099F05EBF36385EA030626406E409219D219CB4FD21BCB4F03EBF25283EAA7
:2023700002062E405E40A4196444E419C74F02EBB44482EA04061E405640AD194D44ED1B13
:2023900004EB353584EA050682EA0607DB19069FDB19BF4FDB1B049F05EB33735E409219CF
:2023B000D219BC4FD21B03EB725283EA020685EA0607E419019FE419B74FE419B74F02EBF7
:2023D00034446640AD194544ED1B04EB752584EA050682EA0607DB190A9FDB19B04FDB1B77
:2023F000079F05EB33735E409219D219AD4FD21903EB725283EA020685EA0607E419AA4FDD
:202410006444E41B029F02EB34446640AD19ED19A64FED1B04EB752584EA050682EA060715
:20243000DB19A34F5B44DB19A24F05EB33735E4092195244D21B03EB725283EA020685EA2A
:202450000607E419089FE4199B4FE41B059F02EB34446640AD19ED19984FED1904EB7525E4
:2024700084EA050682EA0607DB19039FDB19944FDB1B944F05EB33735E4092194A44D21BBA
:2024900003EB725283EA020685EA0607E4198E4F7444E419099F02EB34446640AD19ED197B
:2024B0008A4FED1B8A4F04EB752565EA020666409B195344DB1B874FC1F874C005EBB363C2
:2024D00063EA04066E4092196244DFF80CC2D21903EBB25262EA05065E40A4194444A4EB4B
:2024F0000C04DDF818C002EB744464EA03065640AD197A4E6544DFF8E8C1009FAD1B04EB70
:20251000F52565EA020666409B194B446344DDF820C005EBB36363EA04066E409219714E80
:202530006244DDF808C0921B03EBB25262EA05065E40A4196C4E6444DDF828C0A41B02EB2C
:20255000744464EA03065640AD19684E6544DDF810C0AD1B04EBF52565EA020666409B197A
:20257000634E6344DFF88CC19B1905EBB36363EA04066E4092197244A2EB0C020EE0C04620
:202590006D8E670272BC86592108B4499EDAE109C04CBF3F515A5E2656384916DDF814C063
:2025B00003EBB25262EA05065E40A419524E6444DFF848C1A41B02EB744464EA03065640EE
:2025D000AD195D446544DDF81CC004EBF52565EA020666409B194A4E6344DDF804C09B1BE2
:2025F00005EBB36363EA04066E409219454E6244DDF824C0921B03EBB25262EA05065E408F
:20261000A419414E6444DDF80CC0C1F858A0A41902EB744464EA03065640AD193B4EC1F80D
:2026300088906544AD1B0B9EC1F88CB09B190C9EC1F89080403004EBF525AD190D9EC1F899
:2026500094E0403F34440E9E009732447FF424AC8B60CD600C614A610FB0BDE8F08FC046EA
:20267000A3EFD029531444027F195E2738042C18E6CDE1212AF8C83C79F22A0BED145A455A
:20269000FB161C56085C1003D9026F6776B3D572BEC605007F098E7822619D6DF4C71A0294
:2026B000BC15415BA9CFDE4BA0B4440990434041C67E9B2806D85E157BCF102B051D88047C
:2026D000C72F2B261B662419F87CA21F9BA9533BBCDDD60B97FF2A4359DC6B54C75F6C03D8
:2026F000C3595B656E33F370830B10002FA27B7A4F7EA86F2019D301ECBCFE5CA111084E8B
:202710007E81AC08CB0DC542BBD2D72A6F2C79142DE9F04F85B0804611F8010BDFF8FC2702
:20273000009008F1FD00009B182B08F1E70508F1660A08F20D1B08F5B07408F1860908F50F
:202750009C7608F5C67700F2D683DFE813F019006E007F018B00D403D403F400AF0306011B
:202770001C01F70003014601D403D4039F01D40383016901BB03060306035E02D403A90225
:2027900011F8010B89F80000022208F1880017F033FD0146022208F18A0017F02DFD014651
:2027B000022208F18C0017F027FD0146022208F18E0017F021FD99F80010B9F80220490061
:2027D00089F800105200B9F80410A9F802204900A9F804100222B9F808100901A9F80810D0
:2027F000014608F1840017F007FDBAF81E10B8F80800091A89B247F6FF72914229DAB9F8CF
:202810000600B9F80410B9F80820401C49004843904201D33B201AE101208AF81C000020F9
:20283000A8F81E000120307074E3052208F1610017F0E2FC0146022208F1920017F0DCFC77
:20285000B9F80C10B8F80800091A89B247F6FF72914280F25082012189F80A100020A8F843
:202870001E0078E2A87DC20709D4687B1A210128A97302D1FF220D213BE00D210AE200202B
:202890008AF8000008220120687408F1A80408F1B00017F0B1FC0146022208F1B80017F05A
:2028B000ABFC01460822204617F0A6FC06460821204617F09DFC08F19C04042231462046CA
:2028D00017F09AFC0421204617F092FC08F1A00017F08AFC08F1980017F082FCDFF84006D2
:2028F000018841F080010180687B012807D1FF220421404605B0BDE8F04F0FF0C5B99AF8B4
:2029100011500F2D18BF142D03D00E2D18BF0C2D0FD19AF81040404611F06EFF0421404673
:2029300010F06AFA012C12BF29468AF81A50FD21B0E10421AEE10120E873EBE200208AF87C
:2029500000008AF8060028700B2101206873002068709FE101202874DCE2002302F1090409
:20297000CD5CE45C2543CD54541CE45C2540C5545B1C082BF2DB9AF80600002846D0404654
:2029900010F0A6FABCE2002302F10907CE5CFF5C3E43CE54571CFF5C3E40C6545B1C082B8B
:2029B000F2DB02206875E87D010703D440F64800A081E08150788106CED520891B2804BF56
:2029D00061891B2907D1A089B0F5A47F04BFE189B1F5A47FC0D014215CE19BF8000001283C
:2029F00011D011F8012B8BF8032008F58970022217F002FC0146022208F58A7017F0FCFB8C
:202A100001208BF800009AF80600002800F0AB819BF8021000292CD140460FF0F7FC6FE292
:202A3000A87DDFF80045C10609D412218BF80C10404612F097F800281BD1207863E2404641
:202A500012F01EFC002814D120785CE208788BF80B008BE108782070487860709AF81000AB
:202A700001280DD19AF811100F39012902D9C91F02D04FE270734DE2387B40F0010038E244
:202A900005B0BDE8F04F002016F084B9A87DDFF89444820709D40F218BF80C10404612F099
:202AB00061F80028E7D120782DE208784A7800EB02203082CA78887800EB022070824A7921
:202AD000087900EB0220B082CA79887900EB0220F082087A30768A7A487A00EB0220708375
:202AF0000A7BC87A00EB0220B0838A7B487B00EB0220F0830A7CC87B00EB022030848A7CE7
:202B1000487C00EB022070840A7DC87C00EB0220B084487D897D00EB0120F084DFF80804A6
:202B300001788A0658BF1A2213D508F5AA700490708B0390307E0290B8F808000190F08A05
:202B50000090B38A728A318A40460FF0DBF8A0B11E22A87D410709D40F218BF80C10404659
:202B700012F000F800284DD12078CCE1404605B0BDE8F04F0F2114F099B9708AA9F804007C
:202B9000B08AA9F80600F08AA9F80800022089F800000020A9F80200B8F83400C01DAAF858
:202BB0001E00B8F83210B9F80400B0EB510F02BFB9F80600B8F83410884202BFB9F8080095
:202BD000B8F83610B0EB111F1DD09AF81000012804BF9AF811100F2907D09AF8150020B16F
:202BF0000F218AF81A10FE2154E0FC21404610F003F9F08A0090B38A728A318A98F8060063
:202C100017F0EAFA86E1102144E0E87D10F0090F03D116218BF80C106FE148780A7800F054
:202C3000070002400A7008787A7B0240FA7210D0501E02420BD0510704D5B87B10B10421E7
:202C5000F97204E00220024219D14008FBD1F87A08B9B97AF972F87A042803D1404611F0E7
:202C70004DFAA083F87A17F0B3FA3871A28BB97B012312F0ADFF218B814202D208E0F87243
:202C9000E5E7A28BB97B3879012312F0A1FF014679801721404605B0BDE8F04F10F0ACB885
:202CB00048780A78824207D100F00700104008702ED0431E18420FD01E221821404614F0CC
:202CD000F5F898F80610012301221E200BF024FD387B40F040000CE1F87247F6FF72887888
:202CF000C97800EB012038813989B8F80800091A89B2914201DB282136E00120B871F87A1C
:202D1000042803D1404611F0F9F9A083F87A0BE09AF81100162806D1BB7A98F806101A46B7
:202D300000200BF0F9FCB87A3871A28BB97B3879012312F04DFF218B814206D3A28BB97B6B
:202D50003879012312F044FF014679800121387B40F0400038733170DCE0142B04BF9AF828
:202D70000600002806D13D218BF80B1001208BF80A00CFE008784A7800EB02206082CA7872
:202D9000887800EB0220E0824A79087900EB022020828879C97900EB0120A08208F5B07132
:202DB00008F5B0708A8AC089B97A904288BF1046042905D140F691229042B8BF4FF42960E6
:202DD000E28BE0839042B87A14BF01250025042803D1404611F092F908E008F5B07008F5DD
:202DF000B0718089CA8A904288BF1046A28BA08308F5B071904208F5B0704A8A008918BF45
:202E10000125904288BF1046228B2083904218BF0125A28BB97BB87A012312F0D9FE218BB2
:202E3000814206D3A28BB97BB87A012312F0D0FE0146798008F5B07008F5B0724189108A7F
:202E5000628B814288BF01466183914298F8063014BF0120002005438A4234490A6802EBA3
:202E70004311628B8041121DC00F0A7610B1404614F0BCFA009814280ED145B1E08B00901D
:202E9000638BA28B218B98F8060017F09DF9152140460EF0B3FA33E01DB1387840F00800F8
:202EB0003870397841F02001397033E008780E280ED00F2809D0122804D014280BD0162894
:202ED00011D027E00020307224E00120307321E0032068751EE0387840F00200387040F0B7
:202EF0001000387016E0387B40F00200387340F0100038730EE08BF80C30404611F032FE35
:202F100040B9084800784FF4804105B0BDE8F04F0BF028BA05B0BDE8F08F00BF841D00200D
:202F3000524F00206E4F0020144E00202C1E00202DE9F84F012014F0A7FA012819D1DFF8EA
:202F50007046207800210AF029FE5FEA000804BF002015F01FFF002088F8080008F10400D5
:202F700010F03EFE05F0D4FE050003D1812017F027F918E301206871DFF838064178491C75
:202F90004170A879DFF8301688F80A002078087005F5977440200BF049FF2860D8F8541034
:202FB0004A78D8F85000D1061AD5806D01680A79032A1CBF002015F0EDFED8F85000816D5A
:202FD00090F87C000A6802F1080601281CBF002015F0E0FED8F85000D0F88410286845E032
:202FF000C16E08680279032A1CBF002015F0D2FED8F85000C16E90F898000A6802F10806C8
:2030100001281CBF002015F0C5FED8F85000DFF8AC25D0F8A0102868DFF8A495C16096F825
:2030300026701388032F21D8DFE807F00205101801F5B06101E001F53471C160B9F80000E2
:20305000E087B9F80000A5F8740112E0E3871188A5F87411C16801F5355109E0E38711888E
:20307000A5F87411C16801F6B87101E001F5B061C1603078DFF84C95DFF84CB5C0F3801051
:2030900020700622B11C05F5947016F06BF8042206F10E0105F1240016F064F8D9F80000BB
:2030B000AF7900F10C03042206F10E0103EB471016F058F8D9F80000AB7900EB43100322B9
:2030D00006F11201103016F04DF805F12C07707DB870022206F1160105F1300016F042F875
:2030F000022206F1180105F1320016F03BF8022206F11A0105F1340016F034F838896884EC
:20311000022206F11C0105F1360016F02BF8B87879894000B8700901B88879814000B880BC
:2031300089B2F8884000F88003046A8C521CDB0B5A438A4201D280B230B99BF80000802130
:203150000BF010F93B2142E105F12E01284615F035FC0520A881284615F046FE052206F1F0
:203170001E0105F1610015F0FDFF96F823004009387015F005FA6882B8F82A10401AA081D3
:2031900005F1610196F82300DFF8404400F01F00F873284612F0D1FFD8F854104A78D8F83B
:2031B0005000D10647BF0021806D0021C06E1C260268117141F62102A979206871434252FB
:2031D0000022A97971430144001D4A80A97971434250D8F85410DFF8F8034A78D1060DD5D2
:2031F000DFF8F0138A7851060AD5DFF8EC130A8841F20A439A4208BFDFF8E003C5F89C010E
:20321000D5F89C11284688472168AB7901F10E027343D054A9792068714308440021C1735F
:20323000DFF8BC03017881B1B88870B9002179730120288168812846D5F89C1188472168D4
:20325000AB7901F10E027343D054A8792168704301F10E02125C7A73D8F854104A78D106D7
:203270001CD505F5CB7A9AF8000008B915F092FDA9792068714308449AF800104A1E0274FD
:20329000A979206871430844002141742068AA7900F112017243002088522AE0D8F8501006
:2032B000236891F8402018440274A979206871430844D8F8501091F841204274D8F850001E
:2032D0002168AB79403001F1120273434188D15205F5CB710078012200F0030082400A7019
:2032F000D8F8502092F84000800814BF012002200871A979D9F800002268DFF8E8A200EBD4
:20331000411302F1140C71434CF80130A97971431144B54A8A61DAF81410097895F806E00E
:20333000CA074CBF102200228B074CBF202300235FEA417C4CBF4FF0400C4FF0000C090753
:203350004CBF8021002113434CEA030308304FEA4E1E0B4343F00F0300F80E30D9F8000087
:20337000A97900EB41100B224272D9F80010A87901EB401104228A729C4A1378D9F800005B
:20339000A979012B00EB411002D10121C17203E0DAF828104A78C272D9F80000A97900EBAA
:2033B00041101F220276D9F80010A87901EB401100224A76A8790BF0E1FCA979D9F80020C6
:2033D00049015050A9794B01D05820B90721284615F001FAE7E08648026802EB011016F0EB
:2033F000EBFE834AA8791368D9F8001003EB00130A1D40011350081DAA7952018058F863F0
:20341000A87940010958796404219BF800000AF0A9FFD8F8540042782168D00648BF4FF01F
:20343000020B0BD4A87970430844007C00F00300022814BF4FF0040B4FF0060B684BBA8871
:203450001878934410B10AB9F8888344688A00FB0BF04FF4C872B0FBF2F2521CC5F818B043
:203470006A6140F6C41CA8792B687043009001F1080ED8680CFB0B0B0098ABEB0202A2F536
:20349000A8624EF8002001F10800AA7972438058986001F10C02A87970430C31125C02F099
:2034B000EF020A54A8792168704301F10C020C31125C02F07F020A54A8792168704301F185
:2034D0000C020C31125C02F0F00242F002020A54A979206871430844417B01F0F00141F032
:2034F000010141732068AA7900F1080172438858296808616B69D9F80000A97997F802E09A
:203510005B0000F1140249010CFB0E3303F5F663535095F89611042907D1A979490100F11D
:203530001403525802F561625A50A97900EB4110C27C02F0F00242F00402C274FB88D9F814
:203550000010A879DAF8307001EB4012386843436427B3FBF7F30CFB03F0A0F59660D0617B
:20357000A87901EB4010C17E01F0F00141F00401C176A97920684E432968801948600E2114
:2035900028460FF039FC1B4907200870404615F0ABFEAA790021404611F0D6F828681649BA
:2035B000416116498161BDE8F14F03F07FBE00BF621E0020684E0020641E0020541E00209A
:2035D000521E00202C1E00206E4F0020281E00200D500100841D0020504F0020B9480100BE
:2035F000784E002014B301005C4D0020734F00208C4E00206F4F0020CD6401000204808052
:203610002DE9F04FBA4CADF1240DDFF8E08220780591C90BCF032CD10599A069C90811D20B
:203630000598000938BF0020C0F0C682A07B012804D14146087808B90CF09AFF059880F042
:203650000800B8E288B115F089FB071C0DD0F87A58B9384616F0ECF97A68B97A388907F03D
:20367000A7FA786808B116F031F8059880F00400A1E20DF07DFB0028069000F099820546B4
:20369000012007902878B03800F0F581401E00F0E8811F3840F07F82A978606900270A29F1
:2036B0000FDC0A2900F0B280002900F0AD81491F00F09E81491E00F06E81C81E00F054810B
:2036D000CDE10B3900F08C80C91E7FD0491E0DD0481E40F0C481227815F040FB002800F0A5
:2036F0005881104604210AF03DFE52E12E4628B143681BB1A88839460A469847607800285C
:2037100061D0B08812F03AFE051C00F0A881B07A40080FD36B796BB1012B0BD0F068800A7F
:2037300008D203F00103A81D3A4619460DF0F8FB002843D1207A022802D1B07A00093DD3FE
:20375000B6F804806D790C2015F0B0FF06F10809061C00F01E81A6F80880B572394631604B
:20377000B9F1000FF77209D04846082115F086FB706020B9304615F0A9FF0AE17160A3696D
:20379000002B08BFA66102D01A68AAB91E60304616F04EF94A462946404607F009FA6069E0
:2037B000002800F0F6804368002B00F0F280394640460A469847ECE01346E5E7B0880321B2
:2037D00016F0F6FC4BE1B08805211CE0002800F0E0804368002B00F0DC806A780221C1E01B
:2037F00015F028FF002800F0D480606948B107683FB12869009069892A7B6B7BE81CB8475F
:20381000C7E06889079916F0D3FCC2E0B9466F78002F40F09980A9794908C0F0958002A8A9
:203830004946082216F074F9A88812F0A7FD061C09D1227815F092FA002865D01046042177
:203850000AF090FD60E06F69002F53D007F111004946062215F0A1FBC84600B3384606229F
:2038700015F09BFBB8B9387C07F1110A4F4600F0010B7F1C504659464A46FFB28AF80070D1
:203890000DF04EFB10B9002FF3D104E01FB1B8F1010F02D006E0DDF81C804F466F61B8F172
:2038B000010F27D0686978B30746387C062207F1110100F001008DF80E0002A815F052FC41
:2038D000707907F11108012805D106F10C00B11D062215F047FCB01D4146062215F042FCDF
:2038F000387C40F0020070710EE0C0465A4F0020200B00207079B11D062200F001008DF894
:203910000E0002A815F02EFCA8799DF80F10C0F3800008438DF80F00A879000905D39DF832
:203930000F0040F008008DF80F0002A8294605F0D9FA5FEA000903D1A88812F095F802E0F4
:20395000A88813F0D1FC606918B343680BB3A8886A7807999847A87940081AD36069032186
:203970004A464368A88825E7E978281D0DF1110201F001010DF0D4FA58B99DF8111048003C
:2039900005F10C0200EB810025300421C0B208F0F1F8079F63E0A88813F0A6FC16F004FC16
:2039B00000285CD1E07A012814D0207B01280DD0834C3D4614F8010F012803D1284608F0C9
:2039D000D7FF27706D1C062DF4DB0CE00FF0ECFA277308E015F07DFC394604F12000062252
:2039F000E17216F095F814F06FFC11F0D1FF36E06878002833D1E8786A892B7B291D00F040
:203A100001000AF099F92AE0687840BB16F0C8FB814616F0C1FB804616F0BAFB8DF81000BC
:203A300010214A46022008F0A5F803201021424608F0A0F80799042004AA08F09BF89DF800
:203A50001000012803D09DF81000032807D1079813F0A6FE02460620014608F08BF807978E
:203A700099E02879002840F096806888E9882A8910F0E6FD8FE02879401E40D0083802D027
:203A900074387BD082E068781A2873D06888804614F0F8FC801E18D0401E77D128890128A4
:203AB0000AD16889032807D1E9688A784046042111F02DF8024600E018226069002865D07B
:203AD0004368002B62D0042116E029896888079A0129804609D16989032906D1E9688F7859
:203AF0001FB9102111F013F80246606900284DD04368002B4AD005214046984746E0297A07
:203B1000688805F108060829824633D114F0BAFC801E0ED0401E2DD168890421002210F0DA
:203B3000F6FF0246606928B343681BB3688904211FE070881021002210F0E9FF8146504676
:203B500012F01CFC70B141460F784FB94179079A871D01F001010846394615F000FA01E065
:203B70000798A073606928B143681BB1708805214A469847688811F077FF07E06C88204635
:203B900014F080FC0146204611F096F8297905F1080016F03DFB079838B90A480078FF28FA
:203BB00006D0069914F05AFF02E0069814F046FF059880F4004080B209B0BDE8F08FC046F4
:203BD0003F0B0020091300202DE9F843040014D1002015F0DFF810E0204610F0C3FF0128B8
:203BF00008D063E08A0740F1578101F0FD0101700020B071204610F0FFFD04F16605687DB8
:203C1000002853D0697CDFF8CC94022904F1EC0704F59E7804F5B07604F5C67035D004298B
:203C300047D005295DD0062900F08B800729D3D0092900F0EF800B2900F0C3800C2900F0E8
:203C50000B810D2900F0D3800E2900F0ED800F2900F02B81102900F04581112900F05F81EE
:203C7000122900F01181142900F08A81162900F05D81172900F07881FC2917D0FD2900F0E7
:203C90009881FE2900F0A481A2E7297C012909D199F80300002813D01621204614F09BFDB5
:203CB000012004E0204610F089F828740020BDE8F283297C012940F0A78199F80200002850
:203CD00000F0EA800021A971FF22FC2120460DF0DBFFA07904F1B80204F1B00116F054FA02
:203CF0008BE7297C012910D199F8020020B184F89410002038607860B87A01286AD1FF22C7
:203D1000062120460DF0C0FF77E704F1E7063078012808D1204612F006FF0128C6D1002013
:203D3000B8720120C1E770780028BFD004F1C70204F1A00104F1D70016F022FA01203070DE
:203D50005BE7297C012940F0668199F80200002840D0618CE183204610F04EFD01202870A5
:203D7000204612F0C9F90120A871397A787C012900F010000FD148B1002088F80500D8F8B0
:203D9000001098F8060049080FF080FBA079002116F0F2F90FE048B1D8F80020DFF838038D
:203DB00004F5A1735208214615F0C0FDA0790122002116F0DDF9002038723873F872B87221
:203DD0001BE7287C012806D1F97A012904BFFF22FC2196D060E020460FF0F0FA01289DD103
:203DF0000020F87284F894000120287405E7297C012940F0148199F80200002809D0002127
:203E100084F8941001202870204612F075F90120A87188E0297C012940F0058199F8020029
:203E3000D0B3618CE183E5E6287C012840F0FF80387C022804F1FD0204D1A179002016F070
:203E500093F9D7E6032840F0FB80A1791A2016F08BF900203874CDE6287C012804F20D11F5
:203E700040F0F9800B78012B04F5897240F0F9804878012807D15388009300201388CA7811
:203E9000A17916F06DF9B5E6297C012940F0F88099F802000028F6D1298B481E288380B201
:203EB00000287FF403AF2221F7E6287C012840F0EB8098F80910012902D130780F281BE09D
:203ED00098F80800012826D1002188F80810288D000900901A20AA8CEB8CA179520816F0B2
:203EF0003BF987E6287C012840F0D28098F80910012910D1307810281CBF002014F04AFFE6
:203F1000002088F80900288D00090090AA8CEB8CA1797078E2E7287F0028E2D1BCE7297C58
:203F3000012940F0B98099F80300F5E7297C012940F0B680017B4A061DD4CA0709D501F0DC
:203F5000FE0101730123A179707801220AF0E4FB50E68A0740F1A98001F0FD010173012314
:203F7000A17901221A20F1E7297C012940F0AA80027B510690D5017B01F0BF01017339E6C0
:203F9000297C012940F0A08001788A067FF52AAE01F0DF010A0701700AD501F0F701017011
:203FB000F08B0090738BB28B318BA07916F00CF91EE6A97EFF2220460DF066FE14E7FF229C
:203FD00020460DF061FEACE6002014F0E3FE6DE6A97E0C2918BF0E29F1D00F2902D01429B3
:203FF000EDD0F1E7FF22FC2120460DF04DFEB8F812000090B8F81030B8F80E20B8F80C1044
:20401000A07916F0E9F851E620460CF0FFFC2874E88A28834AE6204610F04AFFF7E7204620
:2040300012F02CFAF3E720460EF052FFEFE720460EF018FF2874E88A28830120387435E6C7
:20405000288B401E288380B20028F8D1A179222016F08AF827E70120887020460EF0D6F933
:20407000D5E7288B401E288380B20028E7D15088009022201388CA78A17916F071F812E79D
:20409000204611F0D5F8C2E720460BF01DFBBEE720460BF06BFBBAE720460FF071FDB6E73D
:2040B000162120460BF072F8B1E7288B401E288380B20028C3D1A1790123012222200AF00F
:2040D0002BFBF0E61721ECE7142120460DF096F99DE700BF5C4D0020A92301002DE9F04F74
:2040F0000F46CC4C0168E16241688068ADF11C0DE060C548A1608047C448E16A0160A16869
:20411000DFF80CB34160E168DFF838838160CC49002FA146C1606FD03D68E8788DF80C007B
:2041300028798DF80D0003A816F012F8A86808B1C9490160E86808B1C8490160C84C287816
:20415000207068786070A878BE68A0703178E1707368636072696261B168A160F168E160CF
:2041700031692A6A21617B68A2632E69E6621868A06168692063A8696063786886681EB96A
:20419000002014F007FE00E026627868C06818B9002014F0FFFD00E060627868006918B9C9
:2041B000002014F0F7FD00E0A0627868406818B9002014F0EFFD00E0E0612869E062F86838
:2041D00081680E6806B9B34EB1494FF0010A4E60C66881F801A036B9002014F0DBFD454600
:2041F0002E68F86801E045462E6000685C46FB68A0615868E06107E0002014F0CBFD4546F2
:204210002E684FF0010A5C46361DD0493668621C04F114035020B04710B128688068804711
:20423000D9F80800804783460023D04ECD48CE4F2061984633714246B370380BF270C7B2C6
:20425000401CC1B2377018467170B94280F2908198B9B8F1000F08D1307814F0EBF9042085
:20427000F08031790020A1B912E086F8028013F04FFA404608F096F907E0B8F1000F02D0DE
:20429000404611F061FB13F043FA3179002001B9504610B9002014F07DFD0020D14E2B6898
:2042B000A0600746B760986980477060C54880F800A039464180142015F0F8F9FF2114220D
:2042D000A06215F025FCE01CFF21022215F020FC142015F0EBF9BC4F38603868002114228E
:2042F00015F016FC0020FCF78BFC504612F0F0FAB6480188FF2906D1022101807822001D9A
:20431000002115F005FC032015F01EFF042015F017FF052015F010FF062015F009FF07204F
:204330000FF08EFCAA4E0820307006F12C0015F0B5FA3178062012F0F1FF11F029FB26360B
:2043500005200621324613F07BFD38B10020C0F10501401C06F8011B0628F8DB2B689D495E
:204370005E6809200DF10E02087001AB10200021B047A06AD9F80C10E2690A260A309DF883
:204390000E30761E00F8013BF9D1921E5846E261884704F12000DFF840822B68626A1E6949
:2043B00005904146504604F12003B04710B1286880688047B84613F073FF5FEA000B03D092
:2043D0000CF048FA4FF0FF3B00264DE00298216910F8062CA0F10C07032A03D1002943D084
:2043F000884741E0A16A9DF810C00A223046491E11F8013F9C450FD0521E00F10100F7D111
:204410004FF0FF0A0AE0C04641490010F8440020F40F0020F80B00205FFA80FA2868BAF10A
:20443000FF0F00F108001DD0387912F0AFFDB979012909D0022904BF0299887006E0C04677
:2044500048A201000C130020029908700299504614F004FB08E0C0461D7D0100B59001000C
:20447000800E0020006880472868C36904A902AA0DF10F0098470028A8D0D8F80000770067
:20449000C35B4BB9761CF6B20A2EF8DB27E0C046641200205F2901000A2E20DAD9F808006E
:2044B0008047D8F80010002231F807A0CA53D9F80C108847494850F82620267051463046B8
:2044D00090470646FF202070D9F808008047D8F800107A5A16437E52D9F80C10884713F0BE
:2044F000DFFE0746BB451AD0D9F8080007B93C4FE169B94238BF0F1C804782462868016A83
:20451000206A8847626A28683349059B521C6262C6683846B047D9F80C1050468847A76884
:204530002968606914319FB9D8F800000A270026835B33B10969606988472968D8F8000020
:2045500014317F1E06F10206F2D105E0FD850100096988472968143109684FF0FF3088477A
:2045700029E7C0462D91010000D00100F81D0020384600216A46042313F03AF8009BB078E2
:20459000B3F5801F0ED043B9B8F1000F03D0404611F0DAF9B078B84610E0384611F0D4F9A3
:2045B000B0780BE0002804BF381CB77006D011F0CBF9384611F0C8F90020B07071787F1CD3
:2045D000FFB242E6340E0020481E0020240D0020200B0020671E0020D56F0100C0AF010014
:2045F0008EC2F528CC1D00202DE9F04F0746B54DB84CB9782A78A068ADF14C0D002900F0A2
:204610006B81B34B491F0FF2AC2900F0B880491E4BD0491E1BD00A3940F02982B888ADF863
:204630000800788960B9ADF80E00B889ADF81000F988ADF80A103E89ADF80C60012000E086
:204650000020A1498DF8130002AA0D4603E19F49BA88102002AB05F023FFA668F87838B938
:204670002D780DF10A0010F0FDFA7DA3009008E02D780DF10A0010F0F5FAB97800917EA36F
:204690000190AD1C30460022E9B213F088FC04F13C0014F03AF8041C00F0F08120890CF069
:2046B0009DFD204612F050FDE8E11946102005F0F7FE5FFA80F82978A068002277A3491C3E
:2046D000C9B213F06CFCCDF800802978A06800224B46891CC9B213F062FCB888814614F0B7
:2046F000A5FE01282CD0C60006EB00163619A036B068071C0ED015F011FA10B1384615F083
:20471000F9F9384615F010FD384612F01DFD706812F01AFD04F13C0007684E4657B1824678
:204730003889864203D15046394613F02DFE3F68002FF5D1304612F0A1FA304611F0BCF8EF
:20475000B8F1000F07D104F1D40015F0D3F90020012112F08BFC00260096CA4F6278102075
:204770003346394605F09CFE0096A27810203346394605F095FE2978A068C91C7AE11946FA
:20479000102005F08DFE5FFA80F8CDF800802978A06800224B46891CC9B213F000FC7878D8
:2047B00000283DD104F1A006B7F80A9030884FF6FF7181421FD1A6F80090032015F07CF9E4
:2047D0007060B0B1082101707068A0F80190242015F072F9B06018B9706812F0B5FC08E0F5
:2047F00070680090B349B06841F27072012310F031FE012030752D78A668381D10F032FACB
:204810006D1C00900022A0A3E9B2304613F0C7FB0120002112F02AFC04F1D40015F068F99B
:20483000A278B8F1000F10D100260096954D627810203346294605F033FE33460093A278D9
:204850001020294605F02CFE18E19B4D1020294605F026FE62782946102005F021FE0DE176
:204870004C696E6B20506172616D20557064617465643A20257300C04C696E6B205061721F
:20489000616D20557064617465204661696C656420307825783A20257300C046446576696D
:2048B000636520446973636F6E6E65637465642100C046C04E756D20436F6E6E733A202576
:2048D0006400C046AC11002035E40000095B010095730100080200207E78002E40F0CE802E
:2048F0003B7AFE798DF80A30FA7A8DF80960B9798DF80F20BB7A8DF8081000268DF80E30BA
:204910006E4A8DF80C607B7A8DF80B6002A98DF80D300B6813604968516029785EA332462A
:20493000491CC9B213F03BFBDFF8A4A10AF10800B0E80C500BA9A1E80C500DC881E80D0057
:20495000601C0BAB5E495F4A0090102005F0A8FDC0B208B114F0F8FC4FF0070904F12C03D5
:2049700004F12C00CDF8009057490193627812901020334605F094FDC0B208B114F0E4FCC3
:204990004FF01B0804F1B800CDF800804E49019062780123102005F083FD04F1B80BC0B2BE
:2049B00008B114F0D1FC627848491020922305F077FD0096334962781020334605F070FDAD
:2049D000C0B208B114F0C0FC50462430B0E80C5004A9A1E80C500DC881E80D00A01C04ABB6
:2049F000384A37490090102005F05AFDC0B208B114F0AAFCCDF80090129801903249A2789F
:204A10003346102005F04CFDC0B208B114F09CFCCDF80080CDF804B02B49A2781020012338
:204A300005F03EFDC0B208B114F08EFCA27827491020922305F034FD00961249A2781020AD
:204A5000334605F02DFDC0B208B114F07DFC2D78A468B81D10F006F9AD1D15A100913246F8
:204A700010A30190E9B2204613F099FA06E0511C921CD6B2C9B2324614F0B1FE13B0BDE8B4
:204A9000F08FC046F1F00000436F6E6E656374656420746F20257300496E697469616C691F
:204AB0007A656400257320416464723A2025730044657600C5720100696801000F06002020
:204AD0008DA1000029830100A9C60000FD540100C4AE01002DE9F84FDFF84444A178FF29BA
:204AF00004BF002014F056F9A07814F0BDFC044604F1680604F5C9753168086804F1900722
:204B100010B10022E28310E0B17B002904BFB07E00280AD13978002904BF2878002804D1CA
:204B3000217F012904BF608CE0832189E08B4118491C6181204613F070FE01281EBFDFF820
:204B5000E4030178012904D120890022401CE28360814FF6FF78B07E01280DD1B28B618961
:204B7000208915F0DDFA38B1218960894A1C93B298422CD0B08B20E0387801280DD17A88AF
:204B90006189208915F0CCFA38B1218960894A1C93B298421BD078880FE02878012816D11C
:204BB0006A886189208915F0BBFA80B1218960894A1C93B298420AD0688892B2904206D0A7
:204BD0004044608180B215F0A7FA4044E083287801280DD120896988401C80B2814207D137
:204BF0006A792A71002028701346A17909F094FD04F59A71087920B120890021401CE18392
:204C1000608104F12E07B07E01283ED12289B08B521C92B2904238D1608104F186012046DD
:204C300013F0CCFEB08C6189608400202077E083E0894118A181B08B218915F06DFA804678
:204C5000B988308C728C01FB0808F08C8A4204BF3989884202BFB18CFB88994207D000096A
:204C70000090B38CA1795208002015F075FAB07F3870708CB880B08CF880F08C38812046F3
:204C900014F0B2F80220B07601E0B7F80480E28BDFF89492501C00FB08F040F6C41808FB1C
:204CB00000F100912368D3F80CC06144DFF87CC2D960DCF800E09E499EF800A00B884FEAB0
:204CD0009A1ABAF1030F15D199F80FC05FEACC7E48BF00230ED45B1C1FFA83FCBCF1010FA2
:204CF00011BFB4F812C004F59A7CBCF806C00CF2DC5C01E0B4F812C00CFB00FC4FF4C87EAC
:204D1000BCFBFEFCDFF82CA20CF1010CC4F814C00B8084F820204FF01C0BA379A0610BFBC3
:204D300003F3DAF800102268D2F80CE001F10800C058106101F10803A0790BFB00FC6069E7
:204D5000AEEB000043F80C0001F10800A3790BFB03F3C058906001F10C02A0790BFB00F03A
:204D70000C31125C02F0F00242F002020A54DAF80000A279811C0BFB02F2002088522879E1
:204D900008B914F007F8DAF80000A27900F1100128790BFB02F240088854A079DAF8001096
:204DB0000BFB00F00844002141742879042814D1A079DAF800100BFB00F001F110022B7A7F
:204DD000125C103142EA83020A54A179DAF800000BFB01F1084420214174DAF80000A279F2
:204DF00000F112010BFB02F200238B525249A2790968520101F11403D4F814C09B5801F19D
:204E1000140E03EB4C034EF80230B27E022A0AD1A279520101F114033E789B5808FB063318
:204E300001F11406B35099F80F20D3074CD5A2790BFB02F200F1080300F108069B58A3F5FD
:204E5000A863B3500830A27923680BFB02F282589A600098121A1A6101F11402A0794001E7
:204E700001F11403125802F5F6621A502879042807D1A079400101F11402125802F56162CB
:204E90001A5001F11400A27952018058C4F834012A4ABE88176B3868A57946436420B6FBA3
:204EB000F0F601F11C036D0108FB06F0A0F596605851A07901EB401021490B78012B0EBF15
:204ED0000122916A4A7819E02879A37904280CBF4FF4AA504FF4E66001F114025B01D258E1
:204EF000101ABA8808FB02F2A2F516729042CFD30821204613F06FFC01200FE0C272A17951
:204F1000DAF800000F4A0BFB01F108442168486007201070204611F0AEFB0020BDE8F28FE4
:204F3000684E0020784F00205C4D0020084F0020561E0020281E00202C1E002014B3010038
:204F5000734F00206F4F00202DE9F84F040004BF002013F01FFF04F1500941F62300D9F8A3
:204F7000006030800020708015F0D2F800F57A60B0608220307302207073B0682061207ED2
:204F9000B0730020F073D9F80400017D022904BF002013F0FFFED9F80400007D012802D1AC
:204FB0000020002104E083280CBF0620022020213074717404F1240BD9F80400DFF8788369
:204FD0004178480615D5D8F8340041690A689BF80510501C01EB4101405A7082607DC1063E
:204FF00004D5E07F40F04000E07702E040F04000607506F15805002028714FF01E0A9BF874
:205010001A00800000F00400287104F130002861607DC10644D506F130013162D9F804005E
:2050300041788A060BD5617D01F0FE016175407810F0030F03D1E07F00F0FE00E077607D74
:2050500012F0A4FA0246A275521C307CC0F38001002392B200F0030011F0F0F9A0831E234B
:20507000A08BE27D00F5FA7100F5FA7090FBF3F34A430AFB13006283C0B208B1C0F11E00E2
:205090008018A183608380B2B168C03001EB8001A9600220E871E07F40F00800E07714E053
:2050B00000213162607D40F001006075D9F804104A78510744BF40F002006075607D12F061
:2050D00065FAA0750020A860E871A07D217D60F3050106F188002175017006F12807617D2D
:2050F0004170032181709BF81A10890001F0040141F0030181709BF81B20D20002F00802DC
:20511000114381700021C1708160BBF81C00C0F30B00ABF81C00D9F80410CA7D40EA023033
:20513000ABF81C000022617D01F0FE01204608F069FE40F61200B0830020F083A02070624B
:2051500007203870607DC1064CBF002002207870E07D788041F62400388100207881618B29
:20517000B06800EB810038610021822038750220787594F8210000F03F00B875F975D9F83B
:205190000400807D012818BF022803D100F07F00401E04E083280CBF062002202021797661
:2051B0003876D8F8340041690A689BF80510501C01EB4101405A788300206861D9F804007C
:2051D000417811F0030F1BD012F0E2FD6861D8F818000078C1074CBF1021002182074CBF45
:2051F0002022002243074CBF4023002300074CBF8020002011431943014341F00F012976BA
:2052100000206876D9F80400807C00F0030068769BF81A10890001F00401084368769BF8E6
:205230001B10C90001F0080141F01001084368764249087838B1697E41F040016976287E33
:2052500000F0FE002876E07F12F0A0F984F82000204609F027F8E07FC1063AD5D9F8040094
:2052700094F820204178521C88074EBFD21E9BF81F008218387EC0F380010023D2B200F0D2
:20529000030011F0DBF8ABF80000BBF8000000F59671C1F11E0291FBFAF10AFB012A8BF8D9
:2052B00004A0D9F804104A7891074CBF00214FF4FA710818ABF80000ABF80200BBF80020E6
:2052D0009BF8040039698218C03201EB8201022001E000210020E961E87604F13000A8626F
:2052F000D9F804104A78687E510747BF04F1380140F02000124900F0DF00E9626876A17FC2
:2053100094F8200060F30501A17740F60B00B8840020F884F86228700220687094F845008A
:205330006880D9F804004178880744BF012068800020BDE8F28F00BF14B30100784E002099
:20535000D04700202DE9F84F0E46700688B02AD5DFF854231078002108F020FC040022D0A7
:20537000DFF8481308688047054614F0C1FA012804D014F093F96168884203D140F2014043
:2053900014F0C2FE00202072201D0EF029FCC8490A6828469047204613F0A6FFFF224321CC
:2053B00020460FF0D1F9F0070BD514F077F928B100218160BF48006800B1804786F001002A
:2053D0006FE1B00710D5002006900021049000230290009005910393019101223C2014F0E0
:2053F0008FFE86F002005CE11E277007DFF8C88240F1A080002007908346B048007800211C
:2054100008F0CCFBAE4904468878FF2804BF002013F0C0FCA07A14F027F80546606D807A64
:2054300095F82E91022818BF032805F5947A06D108F10D0014F060FE08B908F1070B51463A
:20545000484614F055FE88B3606D807C002818BF012804D14146504612F01DFB04E05246A3
:20547000494640460EF0ACF8FF283ED007FB00F908EB090706225146F81D13F073FE18F8DA
:20549000090040F00209F81D07900622606DC17A01F0010185F82E1107F1010A606D00F16C
:2054B0000C0105F5947013F05DFE1EE05146484613F034FFC8B15246494640460EF080F87E
:2054D000FF2812D0474308EB070404F10D0014F013FE40B904F10D0014F00EFE002804BF1E
:2054F000607F012801D149F0020905F12C004B46017806914189090905916A8C079904921D
:205510000122C088029140080390CDF804B0CDF800A00020A97914F0F3FDD5F89C01694972
:205530008842A8790CBF002101210BF023FF86F00400B6E0300610D50020069000210490AF
:2055500000230290009005910393019101223B2014F0D6FD86F08000A3E0F0045BD55A48A4
:20557000046808F10D0014F0C7FD002842D108F1070108F10D0014F0B7FD3BE0606D417846
:20559000480704F13E0523D5287802281EBF0328687801281CD1697804F1380240460EF020
:2055B0000FF8FF2814D0784308EB000909F10D0014F0A2FD60B909F1070109F10D0014F042
:2055D00093FD062209F1070104F1380013F0CAFD2878022818BF03280BD108F10D0014F058
:2055F0008BFD30B9062208F1070104F1300013F0B9FD2468002CC1D13448426834480078BF
:205610004FF4805110F034FD10B18E200CF0FEFA86F4805045E0B00505D514F0ECF82D4976
:2056300001200860FEE7710504D509F0A8FF86F4806036E0700405D581200CF0E7FA86F447
:2056500080402EE0B0042BD5234C206810B1002013F0A0FB4FF0FF30206000201F4C0DF0CC
:2056700099F8216851F8202F684690471C48016B426B00910192C06A24681A491A4A029132
:205690000392ADF810006B462568184A18491948A8471949086004F059F986F4005000E0A5
:2056B000002009B0BDE8F08F621E0020000C0020040C0020204F0020F8190020641E00207F
:2056D000684E0020B94801003C1E0020784E00206E4F0020FC002043044F0020F04E002075
:2056F000800E00208D9601009D960100101D0020EC11002088490020EC4E00202DE9FC4786
:20571000B14CB24D2678DFF8C882B24FB249002E4FF4A05900F01781072E14D0092E18BFA9
:205730000A2E00F012810B2E18BF0C2E00F021810D2E00F0E480112E54D1A84A1078002134
:2057500008F02CFA002871D0C5F80080426D5378016DA34CDFF88C82DB0657D50B4641F228
:20577000044EB3F802C0F4451FBF5E8B7645B3F832A0F24506D041F20A4EF4451CBF7645BB
:20579000F24502D1A7F800E048E04FF0000E40F601044FF4806A182606FB0EFC9E1C36F862
:2057B0000C603E8016F47F4FF5D0022E40F20681B6EB0A0617D0B6EB0A0611D04FF4406418
:2057D000361B01D0B61E012E40F2DD80361FFBD040F2FA34361BE9D0761E00F0E680F61E7D
:2057F00000F0D980A7E01E88A64240F0CC800EF1010EBEF1020FCEDD58E0981C20F80C90A6
:2058100011E0C96E0A68002010710CE0488E388041F20441401A01D0801F01D12C6045E0FE
:2058300041F206403880C5F800803FE06E488078FF2810D0C5F800806C4A12681C214143E8
:20585000931C5B5A3B8013F47F4FF5D040F204441B1B012B664876D94FF47F741B1B15D055
:205870000A3B012B17D940F6F6341B1B032B84BF5B1F012B12D99B1E012B64D940F2FD349A
:205890001B1B0BD05B1E012B05D909E0921C41F20143535202E0921C22F80190286005E009
:2058B000002013F077FA852014F08AFCBDE8FC4750480078012108F055BD4F4C4F4A256830
:2058D0004F4800680023CDE9002355F8089F4D4B0222C8474C49088035E0092E4ED14B49E2
:2058F0000A685089002849D0494908780EF0B0FF0021002014F0F4FB0020207023E0488896
:20591000388002280DD940F20442801A1BD040F6FC72801A05D0083815D04FF47F72801AAC
:205930002CD1887B801CC2B2B52AA8BF662088730020488007E0002013F02CFA8420BDE81F
:20595000F64714F03DBCBDE8F3874888388010F47F4FFAD040F20442801AF4D040F6FC7240
:20597000801ABAD00838EED04FF47F72801AA4D004E04888388010F47F4FFAD0002013F088
:2059900009FA8520DBE7807B012818BF042801D0A7F8009047E7807B01287FF42EAF9A1C0E
:2059B00041F2024122F80C103DE75078C2067FF528AF886D016800220A7134E7002013F0F3
:2059D000E9F98320BBE700BF6F4F0020204F0020599A0100504F0020541D0020621E002080
:2059F000412F000041790000684E0020281E0020596600006E4F0020F04E002002000080B5
:205A1000EC4E0020295C0100424F0020341E0020714F0020BB482DE9F84F0025BA4CB84907
:205A3000056094F8E200002800F06581012800F02F81B64E02283CD0032840F05C8151F801
:205A5000250CD4F8B8100029A0F5C060C4F8D400B8BF49420028B8BF4042814226DA4FF0DE
:205A70008057D7F8A4014568B4F8BC0030214FF47F42082300903046A847D7F8A401456820
:205A9000B4F8C00004214FF4F802122300903046A847D7F8A401B4F8D070456820214FF46D
:205AB00040620A2330460097A847012584F8D8501CE151F8258C13F09EFE2F4600B9012755
:205AD0003946934F38680028FCD0B146012609F10409D9F82CA03E6009B113F092FECAF357
:205AF0000720C4F8BC0013F086FEAA4600B9B2463B68002BFCD0D9F800B0BAF1000F3E605C
:205B100001D013F07EFECBF38440C4F8C00013F072FEAA4600B9B2463B68002BFCD0D9F8A8
:205B30001C90BAF1000F3E6001D013F06AFEC9F38120C4F8D000B8F5C061C4F8B81000F0EA
:205B50009C8094F8D80068B9C4F8D410D4F8C000C4F8C800D4F8BC70C4F8C470D4F8D03030
:205B7000C4F8CC30D4F8D400D4F8BC30002854BF02226FF0010204F1C8010F6800EB4000E4
:205B90008018421000EB927207EBA2000860D4F8C810C4F8C43000291CDD1E293CDDD4F87E
:205BB000CC0030B93429B4BF15391E21C4F8C81025E02A29BABFD4F8C8000B381E20C4F88D
:205BD000C800D4F8C4003F28B4BF401C3F20C4F8C4001FE0D4F8CC00032812D011F10B0F88
:205BF000C6BFD4F8C8000B30301CC4F8C800D4F8C4000028C4BF401E051CC4F8C4500325BF
:205C100008E011F1150FC6BFD4F8C8001530301CC4F8C800C4F8CC504FF08057D7F8A401D6
:205C3000B4F8C43030214FF47F424568374800930823A847D7F8A40104214FF40032112344
:205C5000456832480096A847B4F8C860D7F8A40104214FF4F802122345682C480096A84703
:205C7000D7F8A40120214FF440620A23B4F8CC60456826480096A84701E084F8D85040F21E
:205C9000FF50404502D8801C40452FD2082030E051F8251C1F4F4BF2F5204843060A386867
:205CB000C0F3814001280CD11B4800680068804710F000FD13F0ABFD3111C010484306EB2A
:205CD000E03694F8E50030B91448006820F07F403618760801E084F8E5501148310C066057
:205CF000012741600F4D8760287808B90B2000E0052084F8E40004F00BFBBDE8F88FC0466B
:205D10002D400C402C500C400C0A002000A00C4000800C40B43F0050EC010010102009404B
:205D30003C600C4075B101002DE9FC47C1480278112A47D1C04B1878002107F02FFF040030
:205D50000AD1002013F026F8002013F023F8BDE8F647FF2014F034BA04F14C0898F800000D
:205D700008B90121E172451C88F80050E9B2E07DD8F80490814209F1400A24D299F80E00B4
:205D9000401C89F80E00D8F808104A7AD9F80810520802F0010282F00102101889F80E00F8
:205DB000A08B01EB8001C9F80810627DD30609D5628B98F8003000FB1320C03001EB800194
:205DD000CAF8201033E104F1280609F174074ED1A07F3875E17F7975D8F808205278930780
:205DF00010D5E27FD30604D5C01E387501F0EF0179750020386089F873000022797D01F08C
:205E1000FE010EE1900607D4F08B00B1F07EF875F08B00B1306AF861D8F808004178C8078D
:205E30000BD5F18B00291CBF306A002805D0F861B07E884238BF0146F975E07FC1060CD557
:205E5000D9F83800317800EB8100C9F83800A18CC03100EB8100022101E0002000213860B4
:205E700089F873100022E17F01F0FC01D9E0D8F808104978CA0716D5787D397D00F0F700EE
:205E9000891E01F03F0182075CBF891D40F00200420644BF491E00F0BF0078753975002082
:205EB000F861F875C3E0A28C2D1AD9F838008907EDB200EB820075D5012D41D1C9F83800CC
:205ED000A07F00F03F00A0773875801EE17F7975387501F0F7017975D8F8082053785A070C
:205EF00004D5801F387501F0FD01797500233A7DF17E9AF8000002F03F028A18521CC0F3BF
:205F1000800192B200F0030010F098FA00F5FA70A0841E21A08C90FBF1F18AB2797D01F0A9
:205F3000FE01204607F06EFF002089F87300F08B00B1F07EF875F08B00B1306AF86176E0F8
:205F5000022DC9F8380026D1E07FC10706D5387D811F3975787D00F0FE00787500233A7D63
:205F7000F17E9AF8000002F03F028A18521CC0F3800192B200F0030010F060FA00F5FA70A9
:205F9000A0840022797D01F0FE01204607F03AFF707FAAF81A00707F401C451BE8B2012816
:205FB00012DD07E0C9F83800E17F707F451BCA06E8B209D5A28CD9F83810C03201EB820163
:205FD0003960022189F8731088B3F969F27EE37FA57F1144F96159084FEA410AD8F80810E2
:205FF00049784A0748BF2AF0020A890748BF2AF0080A012807D1307FF8752AF0100A00201E
:20601000386089F87300504611F0C0FA05F0C00500F03F0005433D7587F815A000220AF060
:20603000FC01204602B0BDE8F04707F0EBBEBDE8F38700BF6F4F0020621E00202DE9F04F0E
:2060500009AFADF13C0D08900A92388809911E46ADF81800101C08BF002000F06C81017879
:2060700000274FF0010B401C4FF0FF39B846DA460A9058E1252940F04D810178401C0A901F
:206090002D2918BFADF8068004D10178ADF806B0401C0A9030291CBF4246434604D1017866
:2060B000401C5A465B460A902A29CDF800804D4617D1049330680A9BCDF80890C01C20F069
:2060D0000300001D306050F8044C1978002C009403F101000A9018D5ADF806A06442009416
:2060F00013E044460AE0600000EBC4004018A0F130040A9801780094401C0A90302901DB23
:206110003A29F0DBCDF8089004932E2929D10178401C2A290A9011D13168CDF80880C91C8D
:2061300021F00301091D316051F8045C002D48BF454601782B46401C0A9011E04546434636
:206150000AE0680000EBC5004018A0F130050A9801782B46401C0A90302901DB3A29F0DB2A
:2061700002930AB1224604926C2904D04C2918BFADF8048004D10178ADF804A0401C0A9056
:206190000BA8CDF80C800FAB07906429059379D0692977D0BDF818C0752965D0782961D021
:2061B0006F295DD0702946D0632936D073291AD00A98401E0A900998012812D961490C68D6
:2061D000B5F1FF3F03D0A84288BF6D1C00D8099D029508A80AA932466B46A0473F180398C4
:2061F00065E0454617E03068C01C20F00300001D306050F8040CBCF1010F014608B94FA088
:206210000146079113F04EF90390B5F1FF3F4FD0A8424DD9039528464AE03068C01C20F0EB
:206230000300001D306010F8040C8DF82C005D46039558463CE0082035680490E81C20F073
:206250000300001D306050F8041C082210230FA80CF07EFB401E079040210170079823E024
:20627000082302E0102300E00A233068C01C20F00300001D306050F8041CAA42BCBF2A1C78
:2062900004920DE03068C01C20F00300001D306050F8041CAA42BCBF2A1C04926FF0090321
:2062B0000FA80CF055FB07900599081A0390009C241ABDF8065000945DB906E008A820217B
:2062D00009AA11F0C0FE7F1C009C641E0094F5D50398401EB0F1FF3F03900FD1BDF806001F
:2062F00001281CD10098401E009018D408A8202109AA11F0A8FE00987F1CF4E70798017895
:2063100009AA08A811F09FFE0798401C079003987F1CDEE708A809AA11F095FE7F1C0A98AB
:206330000178401C0A9000297FF4A4AE089808B14146017038460FB0BDE8F08F286E756CC7
:206350006C2900C0ECB201002DE9F84306460D46707801071DD4D6F80310B54821F07F41B9
:20637000203981423FBFD6F8061021F07F412039814228BF112033D2B01DF11C88425FD32F
:20639000B07A002818BF012803D0022818BF032856D1B07C002818BF012803D0022818BF4D
:2063B00003284DD1307D012818BF022803D0832818BF032844D1707A10F0070070723FD036
:2063D0003078012107F0EAFB04000AD100200FF00BFE044613F092FB844214BF07200D2039
:2063F00024E104F15402002016606072207A012808BF0C20F4D00021E17500200121737AB5
:2064100001FA00F73B4208D0E37D5B1CE375DBB2012B04BF00F125032376401C0328EEDB78
:206430007078C10618D5317D012909D1102810D012280CD0132804D0152804D01D2804D097
:206450009FE0002006E0042004E0012002E0022000E00320A0735EE0FF20A073307D02281D
:206470001EBF717801F003000328E9D00B07E7D408B18806E4D4480707D516F10C00DFD0B5
:20649000F07A002818BF01287BD100206075E077707810F0030F27D1207D00F03F0020756F
:2064B0007078810605D45168002904BF9068002801D018216175707881060DD4307D832837
:2064D00018BF032804D1182060750120E07703E0607D40F0010060757078410717D5E07F0F
:2064F00040F00200E07712E0217DC0074CBF0120022001F03F0141EA8011182060752175CE
:206510000920E0777078410744BF0B21E177207D00F0C000A07796F913007F2806BF454835
:2065300000780EF03DF904F12907387045B14248416B48693978026801EB4101505C287068
:20655000B07ADFF8F880DFF8F8903E4D002818BF012809D17875B07AC10758BFC84606229A
:20657000414604F130002FE005F10D0013F0C4FDB8B1B07AC10754BF4946414612F0CEFE37
:2065900008B9122052E0B07AC10754BF49464146062204F1300012F0E5FDB07A00F001005F
:2065B00006E00622E91D04F1300012F0DBFD03207875B07A00F001002870B17AC80758BFE4
:2065D000C84606224146681C12F0CCFD7078410729D5B07A022818BF03281BD1F17A06F1CD
:2065F0000C0201F0010128460CF0EAFFFF2811D01E214843054405F10D0013F07DFD48B99B
:20661000E91D05F10D0013F06FFD0120B8750622E91D04E0F07AB875062206F10C0104F1DA
:20663000380012F09FFD012060720020BDE8F283E0FFFF00714F002014B30100344E00201F
:206650002C4E0020F8190020A3488078FF2800D170472DE9F84F12F007FF054605F21710FF
:206670000178012908BF417800F0A98005F17400817B022903D105F174020020907305F5E0
:206690009274E18911B1207B07F06CFE6889DFF84CC2DFF84C92288105F58D779CF80A00EC
:2066B0009CF807209CF80C109CF80B30B7F800E000EB0208884498449CF80D309844C644AD
:2066D000A7F800E0BB88B7F802E05B1CBB808644A7F802E04FF01C0E2368E3B1D9F80060A1
:2066F00095F806B006F10E0A0EFB0BFB0E361AF80BA033F81AB0C34423F81AB095F806A014
:206710000EFB0AFA16F80A6003EB4606B6F84AA08244A6F84AA0002A04BF9CF80B20002AEE
:2067300005D1002904BF9CF80D10002926D02989E88941180026A9812E74287F012804BFB6
:20675000698CE9839CF8010068B1012105F1740229779078002804BF917B002903D1107F61
:2067700008B9698CE983207D002832D0022804BF9CF80B00002827D1002129E0E98340B1ED
:20679000002028740126287F012806D1698CE98303E0F888401C0226F880A88929898142F9
